{
  "_format": "hh3-artifact-1",
  "contractName": "NexaMarketplace",
  "sourceName": "contracts/NexaMarketplace.sol",
  "abi": [
    {
      "inputs": [],
      "stateMutability": "nonpayable",
      "type": "constructor"
    },
    {
      "inputs": [
        {
          "internalType": "address",
          "name": "owner",
          "type": "address"
        }
      ],
      "name": "OwnableInvalidOwner",
      "type": "error"
    },
    {
      "inputs": [
        {
          "internalType": "address",
          "name": "account",
          "type": "address"
        }
      ],
      "name": "OwnableUnauthorizedAccount",
      "type": "error"
    },
    {
      "inputs": [],
      "name": "ReentrancyGuardReentrantCall",
      "type": "error"
    },
    {
      "anonymous": false,
      "inputs": [
        {
          "indexed": true,
          "internalType": "address",
          "name": "nftContract",
          "type": "address"
        },
        {
          "indexed": true,
          "internalType": "uint256",
          "name": "tokenId",
          "type": "uint256"
        },
        {
          "indexed": true,
          "internalType": "address",
          "name": "seller",
          "type": "address"
        },
        {
          "indexed": false,
          "internalType": "uint256",
          "name": "price",
          "type": "uint256"
        }
      ],
      "name": "ItemListed",
      "type": "event"
    },
    {
      "anonymous": false,
      "inputs": [
        {
          "indexed": true,
          "internalType": "address",
          "name": "nftContract",
          "type": "address"
        },
        {
          "indexed": true,
          "internalType": "uint256",
          "name": "tokenId",
          "type": "uint256"
        },
        {
          "indexed": true,
          "internalType": "address",
          "name": "seller",
          "type": "address"
        },
        {
          "indexed": false,
          "internalType": "address",
          "name": "buyer",
          "type": "address"
        },
        {
          "indexed": false,
          "internalType": "uint256",
          "name": "price",
          "type": "uint256"
        }
      ],
      "name": "ItemSold",
      "type": "event"
    },
    {
      "anonymous": false,
      "inputs": [
        {
          "indexed": true,
          "internalType": "address",
          "name": "nftContract",
          "type": "address"
        },
        {
          "indexed": true,
          "internalType": "uint256",
          "name": "tokenId",
          "type": "uint256"
        },
        {
          "indexed": true,
          "internalType": "address",
          "name": "seller",
          "type": "address"
        }
      ],
      "name": "ListingCancelled",
      "type": "event"
    },
    {
      "anonymous": false,
      "inputs": [
        {
          "indexed": false,
          "internalType": "uint256",
          "name": "newFee",
          "type": "uint256"
        }
      ],
      "name": "MarketplaceFeeUpdated",
      "type": "event"
    },
    {
      "anonymous": false,
      "inputs": [
        {
          "indexed": true,
          "internalType": "address",
          "name": "previousOwner",
          "type": "address"
        },
        {
          "indexed": true,
          "internalType": "address",
          "name": "newOwner",
          "type": "address"
        }
      ],
      "name": "OwnershipTransferred",
      "type": "event"
    },
    {
      "inputs": [
        {
          "internalType": "address",
          "name": "nftContract",
          "type": "address"
        },
        {
          "internalType": "uint256",
          "name": "tokenId",
          "type": "uint256"
        }
      ],
      "name": "buyItem",
      "outputs": [],
      "stateMutability": "payable",
      "type": "function"
    },
    {
      "inputs": [
        {
          "internalType": "address",
          "name": "nftContract",
          "type": "address"
        },
        {
          "internalType": "uint256",
          "name": "tokenId",
          "type": "uint256"
        }
      ],
      "name": "cancelListing",
      "outputs": [],
      "stateMutability": "nonpayable",
      "type": "function"
    },
    {
      "inputs": [
        {
          "internalType": "address",
          "name": "nftContract",
          "type": "address"
        },
        {
          "internalType": "uint256",
          "name": "tokenId",
          "type": "uint256"
        }
      ],
      "name": "emergencyCancelListing",
      "outputs": [],
      "stateMutability": "nonpayable",
      "type": "function"
    },
    {
      "inputs": [
        {
          "internalType": "address",
          "name": "nftContract",
          "type": "address"
        },
        {
          "internalType": "uint256",
          "name": "tokenId",
          "type": "uint256"
        }
      ],
      "name": "getListing",
      "outputs": [
        {
          "internalType": "uint256",
          "name": "price",
          "type": "uint256"
        },
        {
          "internalType": "address",
          "name": "seller",
          "type": "address"
        },
        {
          "internalType": "bool",
          "name": "active",
          "type": "bool"
        }
      ],
      "stateMutability": "view",
      "type": "function"
    },
    {
      "inputs": [
        {
          "internalType": "address",
          "name": "nftContract",
          "type": "address"
        },
        {
          "internalType": "uint256",
          "name": "tokenId",
          "type": "uint256"
        },
        {
          "internalType": "uint256",
          "name": "price",
          "type": "uint256"
        }
      ],
      "name": "listItem",
      "outputs": [],
      "stateMutability": "nonpayable",
      "type": "function"
    },
    {
      "inputs": [],
      "name": "marketplaceFee",
      "outputs": [
        {
          "internalType": "uint256",
          "name": "",
          "type": "uint256"
        }
      ],
      "stateMutability": "view",
      "type": "function"
    },
    {
      "inputs": [],
      "name": "owner",
      "outputs": [
        {
          "internalType": "address",
          "name": "",
          "type": "address"
        }
      ],
      "stateMutability": "view",
      "type": "function"
    },
    {
      "inputs": [],
      "name": "renounceOwnership",
      "outputs": [],
      "stateMutability": "nonpayable",
      "type": "function"
    },
    {
      "inputs": [
        {
          "internalType": "address",
          "name": "newOwner",
          "type": "address"
        }
      ],
      "name": "transferOwnership",
      "outputs": [],
      "stateMutability": "nonpayable",
      "type": "function"
    },
    {
      "inputs": [
        {
          "internalType": "uint256",
          "name": "newFee",
          "type": "uint256"
        }
      ],
      "name": "updateMarketplaceFee",
      "outputs": [],
      "stateMutability": "nonpayable",
      "type": "function"
    },
    {
      "inputs": [],
      "name": "withdrawFees",
      "outputs": [],
      "stateMutability": "nonpayable",
      "type": "function"
    }
  ],
  "bytecode": "0x608060405260fa600355348015610014575f80fd5b5060015f55338061003e57604051631e4fbdf760e01b81525f600482015260240160405180910390fd5b6100478161004d565b5061009e565b600180546001600160a01b038381166001600160a01b0319831681179093556040519116919082907f8be0079c531659141344cd1fd0a4f28419497f9722a3daafe3b4186f6b6457e0905f90a35050565b6110c4806100ab5f395ff3fe60806040526004361061009a575f3560e01c806388700d1c1161006257806388700d1c1461012e57806389bfd38f146101c95780638da5cb5b146101e85780639f37092a1461020f578063b2ddee0614610222578063f2fde38b14610241575f80fd5b806330eb80cd1461009e578063476343ee146100bf5780636a166964146100d3578063715018a6146100fb57806375bd04021461010f575b5f80fd5b3480156100a9575f80fd5b506100bd6100b8366004610f48565b610260565b005b3480156100ca575f80fd5b506100bd6102e9565b3480156100de575f80fd5b506100e860035481565b6040519081526020015b60405180910390f35b348015610106575f80fd5b506100bd6103dd565b34801561011a575f80fd5b506100bd610129366004610f73565b6103f0565b348015610139575f80fd5b506101a4610148366004610f73565b6001600160a01b039182165f9081526002602090815260408083209383529281529082902082516060810184528154808252600190920154948516928101839052600160a01b90940460ff161515939092018390529092909190565b604080519384526001600160a01b0390921660208401521515908201526060016100f2565b3480156101d4575f80fd5b506100bd6101e3366004610f9d565b6104d5565b3480156101f3575f80fd5b506001546040516001600160a01b0390911681526020016100f2565b6100bd61021d366004610f73565b610891565b34801561022d575f80fd5b506100bd61023c366004610f73565b610d11565b34801561024c575f80fd5b506100bd61025b366004610fcf565b610e65565b610268610ea2565b6103e88111156102ae5760405162461bcd60e51b815260206004820152600c60248201526b08ccaca40e8dede40d0d2ced60a31b60448201526064015b60405180910390fd5b60038190556040518181527fe18aa129833f655a8166b6185277fee7a53f67e46fd32329bc2fc2ac21274d559060200160405180910390a150565b6102f1610ea2565b47806103355760405162461bcd60e51b81526020600482015260136024820152724e6f206665657320746f20776974686472617760681b60448201526064016102a5565b5f6103486001546001600160a01b031690565b6001600160a01b0316826040515f6040518083038185875af1925050503d805f811461038f576040519150601f19603f3d011682016040523d82523d5f602084013e610394565b606091505b50509050806103d95760405162461bcd60e51b815260206004820152601160248201527015da5d1a191c985dd85b0819985a5b1959607a1b60448201526064016102a5565b5050565b6103e5610ea2565b6103ee5f610ecf565b565b6103f8610ea2565b6001600160a01b0382165f908152600260209081526040808320848452909152902060010154600160a01b900460ff166104665760405162461bcd60e51b815260206004820152600f60248201526e125d195b481b9bdd081b1a5cdd1959608a1b60448201526064016102a5565b6001600160a01b038281165f818152600260209081526040808320868452909152808220600181018054918490556001600160a81b03198216905590519316928392859290917f8526cb6d400b8a551983c99e6d6fb1775b7a0deeb5d1e39d3ee65bc59e5eac279190a4505050565b5f81116105245760405162461bcd60e51b815260206004820152601c60248201527f5072696365206d7573742062652067726561746572207468616e20300000000060448201526064016102a5565b6001600160a01b03831661057a5760405162461bcd60e51b815260206004820152601c60248201527f496e76616c6964204e465420636f6e747261637420616464726573730000000060448201526064016102a5565b6040516331a9108f60e11b815260048101839052839033906001600160a01b03831690636352211e90602401602060405180830381865afa1580156105c1573d5f803e3d5ffd5b505050506040513d601f19601f820116820180604052508101906105e59190610ff1565b6001600160a01b0316146106345760405162461bcd60e51b8152602060048201526016602482015275165bdd48191bdb89dd081bdddb881d1a1a5cc813919560521b60448201526064016102a5565b60405163020604bf60e21b81526004810184905230906001600160a01b0383169063081812fc90602401602060405180830381865afa158015610679573d5f803e3d5ffd5b505050506040513d601f19601f8201168201806040525081019061069d9190610ff1565b6001600160a01b03161480610719575060405163e985e9c560e01b81523360048201523060248201526001600160a01b0382169063e985e9c590604401602060405180830381865afa1580156106f5573d5f803e3d5ffd5b505050506040513d601f19601f82011682018060405250810190610719919061100c565b6107765760405162461bcd60e51b815260206004820152602860248201527f4d61726b6574706c616365206e6f7420617070726f76656420746f207472616e6044820152671cd9995c8813919560c21b60648201526084016102a5565b6001600160a01b0384165f908152600260209081526040808320868452909152902060010154600160a01b900460ff16156107e95760405162461bcd60e51b8152602060048201526013602482015272125d195b48185b1c9958591e481b1a5cdd1959606a1b60448201526064016102a5565b6040805160608101825283815233602080830182815260018486018181526001600160a01b038b81165f818152600287528981208d8252875289902097518855935196909201805491511515600160a01b026001600160a81b0319909216969092169590951794909417909355925185815290928692917fb29a3c5d9c9eb8230bd277c54293a0a15e98cd5592a3e0d470fe9ce59fed54f1910160405180910390a450505050565b610899610f20565b6001600160a01b038281165f90815260026020908152604080832085845282529182902082516060810184528154815260019091015493841691810191909152600160a01b90920460ff1615159082018190526109385760405162461bcd60e51b815260206004820152601860248201527f4974656d206e6f74206c697374656420666f722073616c65000000000000000060448201526064016102a5565b80513410156109805760405162461bcd60e51b8152602060048201526014602482015273125b9cdd59999a58da595b9d081c185e5b595b9d60621b60448201526064016102a5565b60208101516001600160a01b031633036109dc5760405162461bcd60e51b815260206004820152601760248201527f43616e6e6f742062757920796f7572206f776e204e465400000000000000000060448201526064016102a5565b60208101516040516331a9108f60e11b81526004810184905284916001600160a01b039081169190831690636352211e90602401602060405180830381865afa158015610a2b573d5f803e3d5ffd5b505050506040513d601f19601f82011682018060405250810190610a4f9190610ff1565b6001600160a01b031614610aa55760405162461bcd60e51b815260206004820152601960248201527f53656c6c6572206e6f206c6f6e676572206f776e73204e46540000000000000060448201526064016102a5565b6001600160a01b0384165f908152600260209081526040808320868452909152812081815560010180546001600160a81b0319169055600354835161271091610aed9161103f565b610af7919061105c565b90505f81845f0151610b09919061107b565b6020850151604051632142170760e11b81526001600160a01b039182166004820152336024820152604481018890529192508416906342842e0e906064015f604051808303815f87803b158015610b5e575f80fd5b505af1158015610b70573d5f803e3d5ffd5b505050505f84602001516001600160a01b0316826040515f6040518083038185875af1925050503d805f8114610bc1576040519150601f19603f3d011682016040523d82523d5f602084013e610bc6565b606091505b5050905080610c175760405162461bcd60e51b815260206004820152601860248201527f5061796d656e7420746f2073656c6c6572206661696c6564000000000000000060448201526064016102a5565b8451341115610cb15784515f903390610c30903461107b565b6040515f81818185875af1925050503d805f8114610c69576040519150601f19603f3d011682016040523d82523d5f602084013e610c6e565b606091505b5050905080610caf5760405162461bcd60e51b815260206004820152600d60248201526c1499599d5b990819985a5b1959609a1b60448201526064016102a5565b505b602080860151865160408051338152938401919091526001600160a01b039182169289928b16917fbcf10c39f62b09d50efa1e275c1297b15ef10efd0e4e9b54883d782eef4ef564910160405180910390a450505050506103d960015f55565b6001600160a01b038281165f90815260026020908152604080832085845282529182902082516060810184528154815260019091015493841691810191909152600160a01b90920460ff161515908201819052610da25760405162461bcd60e51b815260206004820152600f60248201526e125d195b481b9bdd081b1a5cdd1959608a1b60448201526064016102a5565b60208101516001600160a01b03163314610dfe5760405162461bcd60e51b815260206004820152601e60248201527f4f6e6c792073656c6c65722063616e2063616e63656c206c697374696e67000060448201526064016102a5565b6001600160a01b0383165f81815260026020908152604080832086845290915280822082815560010180546001600160a81b0319169055513392859290917f8526cb6d400b8a551983c99e6d6fb1775b7a0deeb5d1e39d3ee65bc59e5eac279190a4505050565b610e6d610ea2565b6001600160a01b038116610e9657604051631e4fbdf760e01b81525f60048201526024016102a5565b610e9f81610ecf565b50565b6001546001600160a01b031633146103ee5760405163118cdaa760e01b81523360048201526024016102a5565b600180546001600160a01b038381166001600160a01b0319831681179093556040519116919082907f8be0079c531659141344cd1fd0a4f28419497f9722a3daafe3b4186f6b6457e0905f90a35050565b60025f5403610f4257604051633ee5aeb560e01b815260040160405180910390fd5b60025f55565b5f60208284031215610f58575f80fd5b5035919050565b6001600160a01b0381168114610e9f575f80fd5b5f8060408385031215610f84575f80fd5b8235610f8f81610f5f565b946020939093013593505050565b5f805f60608486031215610faf575f80fd5b8335610fba81610f5f565b95602085013595506040909401359392505050565b5f60208284031215610fdf575f80fd5b8135610fea81610f5f565b9392505050565b5f60208284031215611001575f80fd5b8151610fea81610f5f565b5f6020828403121561101c575f80fd5b81518015158114610fea575f80fd5b634e487b7160e01b5f52601160045260245ffd5b80820281158282048414176110565761105661102b565b92915050565b5f8261107657634e487b7160e01b5f52601260045260245ffd5b500490565b818103818111156110565761105661102b56fea264697066735822122085e597d2be2173e03ebd04742515bf1f21adbe5d98578bbd10089296611951be64736f6c63430008140033",
  "linkReferences": {},
  "deployedLinkReferences": {},
  "immutableReferences": {},
  "inputSourceName": "project/contracts/NexaMarketplace.sol",
  "buildInfoId": "solc-0_8_20-3ec5953f8102496748f4a240137b3279cf9f1572"
}