{
  "_format": "hh3-artifact-1",
  "contractName": "NexaNFT",
  "sourceName": "contracts/NexaNFT.sol",
  "abi": [
    {
      "inputs": [],
      "stateMutability": "nonpayable",
      "type": "constructor"
    },
    {
      "inputs": [
        {
          "internalType": "address",
          "name": "sender",
          "type": "address"
        },
        {
          "internalType": "uint256",
          "name": "tokenId",
          "type": "uint256"
        },
        {
          "internalType": "address",
          "name": "owner",
          "type": "address"
        }
      ],
      "name": "ERC721IncorrectOwner",
      "type": "error"
    },
    {
      "inputs": [
        {
          "internalType": "address",
          "name": "operator",
          "type": "address"
        },
        {
          "internalType": "uint256",
          "name": "tokenId",
          "type": "uint256"
        }
      ],
      "name": "ERC721InsufficientApproval",
      "type": "error"
    },
    {
      "inputs": [
        {
          "internalType": "address",
          "name": "approver",
          "type": "address"
        }
      ],
      "name": "ERC721InvalidApprover",
      "type": "error"
    },
    {
      "inputs": [
        {
          "internalType": "address",
          "name": "operator",
          "type": "address"
        }
      ],
      "name": "ERC721InvalidOperator",
      "type": "error"
    },
    {
      "inputs": [
        {
          "internalType": "address",
          "name": "owner",
          "type": "address"
        }
      ],
      "name": "ERC721InvalidOwner",
      "type": "error"
    },
    {
      "inputs": [
        {
          "internalType": "address",
          "name": "receiver",
          "type": "address"
        }
      ],
      "name": "ERC721InvalidReceiver",
      "type": "error"
    },
    {
      "inputs": [
        {
          "internalType": "address",
          "name": "sender",
          "type": "address"
        }
      ],
      "name": "ERC721InvalidSender",
      "type": "error"
    },
    {
      "inputs": [
        {
          "internalType": "uint256",
          "name": "tokenId",
          "type": "uint256"
        }
      ],
      "name": "ERC721NonexistentToken",
      "type": "error"
    },
    {
      "inputs": [
        {
          "internalType": "address",
          "name": "owner",
          "type": "address"
        }
      ],
      "name": "OwnableInvalidOwner",
      "type": "error"
    },
    {
      "inputs": [
        {
          "internalType": "address",
          "name": "account",
          "type": "address"
        }
      ],
      "name": "OwnableUnauthorizedAccount",
      "type": "error"
    },
    {
      "anonymous": false,
      "inputs": [
        {
          "indexed": true,
          "internalType": "address",
          "name": "owner",
          "type": "address"
        },
        {
          "indexed": true,
          "internalType": "address",
          "name": "approved",
          "type": "address"
        },
        {
          "indexed": true,
          "internalType": "uint256",
          "name": "tokenId",
          "type": "uint256"
        }
      ],
      "name": "Approval",
      "type": "event"
    },
    {
      "anonymous": false,
      "inputs": [
        {
          "indexed": true,
          "internalType": "address",
          "name": "owner",
          "type": "address"
        },
        {
          "indexed": true,
          "internalType": "address",
          "name": "operator",
          "type": "address"
        },
        {
          "indexed": false,
          "internalType": "bool",
          "name": "approved",
          "type": "bool"
        }
      ],
      "name": "ApprovalForAll",
      "type": "event"
    },
    {
      "anonymous": false,
      "inputs": [
        {
          "indexed": false,
          "internalType": "uint256",
          "name": "_fromTokenId",
          "type": "uint256"
        },
        {
          "indexed": false,
          "internalType": "uint256",
          "name": "_toTokenId",
          "type": "uint256"
        }
      ],
      "name": "BatchMetadataUpdate",
      "type": "event"
    },
    {
      "anonymous": false,
      "inputs": [
        {
          "indexed": false,
          "internalType": "uint256",
          "name": "_tokenId",
          "type": "uint256"
        }
      ],
      "name": "MetadataUpdate",
      "type": "event"
    },
    {
      "anonymous": false,
      "inputs": [
        {
          "indexed": true,
          "internalType": "address",
          "name": "previousOwner",
          "type": "address"
        },
        {
          "indexed": true,
          "internalType": "address",
          "name": "newOwner",
          "type": "address"
        }
      ],
      "name": "OwnershipTransferred",
      "type": "event"
    },
    {
      "anonymous": false,
      "inputs": [
        {
          "indexed": true,
          "internalType": "uint256",
          "name": "tokenId",
          "type": "uint256"
        },
        {
          "indexed": true,
          "internalType": "address",
          "name": "to",
          "type": "address"
        },
        {
          "indexed": false,
          "internalType": "string",
          "name": "tokenURI",
          "type": "string"
        }
      ],
      "name": "TokenMinted",
      "type": "event"
    },
    {
      "anonymous": false,
      "inputs": [
        {
          "indexed": true,
          "internalType": "address",
          "name": "from",
          "type": "address"
        },
        {
          "indexed": true,
          "internalType": "address",
          "name": "to",
          "type": "address"
        },
        {
          "indexed": true,
          "internalType": "uint256",
          "name": "tokenId",
          "type": "uint256"
        }
      ],
      "name": "Transfer",
      "type": "event"
    },
    {
      "inputs": [
        {
          "internalType": "address",
          "name": "to",
          "type": "address"
        },
        {
          "internalType": "uint256",
          "name": "tokenId",
          "type": "uint256"
        }
      ],
      "name": "approve",
      "outputs": [],
      "stateMutability": "nonpayable",
      "type": "function"
    },
    {
      "inputs": [
        {
          "internalType": "address",
          "name": "owner",
          "type": "address"
        }
      ],
      "name": "balanceOf",
      "outputs": [
        {
          "internalType": "uint256",
          "name": "",
          "type": "uint256"
        }
      ],
      "stateMutability": "view",
      "type": "function"
    },
    {
      "inputs": [
        {
          "internalType": "uint256",
          "name": "tokenId",
          "type": "uint256"
        }
      ],
      "name": "getApproved",
      "outputs": [
        {
          "internalType": "address",
          "name": "",
          "type": "address"
        }
      ],
      "stateMutability": "view",
      "type": "function"
    },
    {
      "inputs": [
        {
          "internalType": "address",
          "name": "owner",
          "type": "address"
        },
        {
          "internalType": "address",
          "name": "operator",
          "type": "address"
        }
      ],
      "name": "isApprovedForAll",
      "outputs": [
        {
          "internalType": "bool",
          "name": "",
          "type": "bool"
        }
      ],
      "stateMutability": "view",
      "type": "function"
    },
    {
      "inputs": [
        {
          "internalType": "address",
          "name": "recipient",
          "type": "address"
        },
        {
          "internalType": "string",
          "name": "_tokenURI",
          "type": "string"
        }
      ],
      "name": "mint",
      "outputs": [
        {
          "internalType": "uint256",
          "name": "",
          "type": "uint256"
        }
      ],
      "stateMutability": "nonpayable",
      "type": "function"
    },
    {
      "inputs": [],
      "name": "name",
      "outputs": [
        {
          "internalType": "string",
          "name": "",
          "type": "string"
        }
      ],
      "stateMutability": "view",
      "type": "function"
    },
    {
      "inputs": [],
      "name": "owner",
      "outputs": [
        {
          "internalType": "address",
          "name": "",
          "type": "address"
        }
      ],
      "stateMutability": "view",
      "type": "function"
    },
    {
      "inputs": [
        {
          "internalType": "uint256",
          "name": "tokenId",
          "type": "uint256"
        }
      ],
      "name": "ownerOf",
      "outputs": [
        {
          "internalType": "address",
          "name": "",
          "type": "address"
        }
      ],
      "stateMutability": "view",
      "type": "function"
    },
    {
      "inputs": [],
      "name": "renounceOwnership",
      "outputs": [],
      "stateMutability": "nonpayable",
      "type": "function"
    },
    {
      "inputs": [
        {
          "internalType": "address",
          "name": "from",
          "type": "address"
        },
        {
          "internalType": "address",
          "name": "to",
          "type": "address"
        },
        {
          "internalType": "uint256",
          "name": "tokenId",
          "type": "uint256"
        }
      ],
      "name": "safeTransferFrom",
      "outputs": [],
      "stateMutability": "nonpayable",
      "type": "function"
    },
    {
      "inputs": [
        {
          "internalType": "address",
          "name": "from",
          "type": "address"
        },
        {
          "internalType": "address",
          "name": "to",
          "type": "address"
        },
        {
          "internalType": "uint256",
          "name": "tokenId",
          "type": "uint256"
        },
        {
          "internalType": "bytes",
          "name": "data",
          "type": "bytes"
        }
      ],
      "name": "safeTransferFrom",
      "outputs": [],
      "stateMutability": "nonpayable",
      "type": "function"
    },
    {
      "inputs": [
        {
          "internalType": "address",
          "name": "operator",
          "type": "address"
        },
        {
          "internalType": "bool",
          "name": "approved",
          "type": "bool"
        }
      ],
      "name": "setApprovalForAll",
      "outputs": [],
      "stateMutability": "nonpayable",
      "type": "function"
    },
    {
      "inputs": [
        {
          "internalType": "bytes4",
          "name": "interfaceId",
          "type": "bytes4"
        }
      ],
      "name": "supportsInterface",
      "outputs": [
        {
          "internalType": "bool",
          "name": "",
          "type": "bool"
        }
      ],
      "stateMutability": "view",
      "type": "function"
    },
    {
      "inputs": [],
      "name": "symbol",
      "outputs": [
        {
          "internalType": "string",
          "name": "",
          "type": "string"
        }
      ],
      "stateMutability": "view",
      "type": "function"
    },
    {
      "inputs": [
        {
          "internalType": "uint256",
          "name": "tokenId",
          "type": "uint256"
        }
      ],
      "name": "tokenURI",
      "outputs": [
        {
          "internalType": "string",
          "name": "",
          "type": "string"
        }
      ],
      "stateMutability": "view",
      "type": "function"
    },
    {
      "inputs": [],
      "name": "totalSupply",
      "outputs": [
        {
          "internalType": "uint256",
          "name": "",
          "type": "uint256"
        }
      ],
      "stateMutability": "view",
      "type": "function"
    },
    {
      "inputs": [
        {
          "internalType": "address",
          "name": "from",
          "type": "address"
        },
        {
          "internalType": "address",
          "name": "to",
          "type": "address"
        },
        {
          "internalType": "uint256",
          "name": "tokenId",
          "type": "uint256"
        }
      ],
      "name": "transferFrom",
      "outputs": [],
      "stateMutability": "nonpayable",
      "type": "function"
    },
    {
      "inputs": [
        {
          "internalType": "address",
          "name": "newOwner",
          "type": "address"
        }
      ],
      "name": "transferOwnership",
      "outputs": [],
      "stateMutability": "nonpayable",
      "type": "function"
    }
  ],
  "bytecode": "0x608060405234801562000010575f80fd5b50336040518060400160405280600881526020016713995e184813919560c21b815250604051806040016040528060048152602001631393919560e21b815250815f9081620000609190620001a3565b5060016200006f8282620001a3565b5050506001600160a01b038116620000a057604051631e4fbdf760e01b81525f600482015260240160405180910390fd5b620000ab81620000b2565b506200026b565b600780546001600160a01b038381166001600160a01b0319831681179093556040519116919082907f8be0079c531659141344cd1fd0a4f28419497f9722a3daafe3b4186f6b6457e0905f90a35050565b634e487b7160e01b5f52604160045260245ffd5b600181811c908216806200012c57607f821691505b6020821081036200014b57634e487b7160e01b5f52602260045260245ffd5b50919050565b601f8211156200019e575f81815260208120601f850160051c81016020861015620001795750805b601f850160051c820191505b818110156200019a5782815560010162000185565b5050505b505050565b81516001600160401b03811115620001bf57620001bf62000103565b620001d781620001d0845462000117565b8462000151565b602080601f8311600181146200020d575f8415620001f55750858301515b5f19600386901b1c1916600185901b1785556200019a565b5f85815260208120601f198616915b828110156200023d578886015182559484019460019091019084016200021c565b50858210156200025b57878501515f19600388901b60f8161c191681555b5050505050600190811b01905550565b61148280620002795f395ff3fe608060405234801561000f575f80fd5b5060043610610111575f3560e01c8063715018a61161009e578063b88d4fde1161006e578063b88d4fde14610224578063c87b56dd14610237578063d0def5211461024a578063e985e9c51461025d578063f2fde38b14610270575f80fd5b8063715018a6146101f05780638da5cb5b146101f857806395d89b4114610209578063a22cb46514610211575f80fd5b806318160ddd116100e457806318160ddd1461019257806323b872dd146101a457806342842e0e146101b75780636352211e146101ca57806370a08231146101dd575f80fd5b806301ffc9a71461011557806306fdde031461013d578063081812fc14610152578063095ea7b31461017d575b5f80fd5b610128610123366004610f7e565b610283565b60405190151581526020015b60405180910390f35b6101456102ad565b6040516101349190610fe6565b610165610160366004610ff8565b61033c565b6040516001600160a01b039091168152602001610134565b61019061018b36600461102a565b610363565b005b6008545b604051908152602001610134565b6101906101b2366004611052565b610372565b6101906101c5366004611052565b610400565b6101656101d8366004610ff8565b61041f565b6101966101eb36600461108b565b610429565b61019061046e565b6007546001600160a01b0316610165565b610145610481565b61019061021f3660046110a4565b610490565b610190610232366004611164565b61049b565b610145610245366004610ff8565b6104b3565b6101966102583660046111db565b6104be565b61012861026b366004611239565b6105d9565b61019061027e36600461108b565b610606565b5f6001600160e01b03198216632483248360e11b14806102a757506102a782610643565b92915050565b60605f80546102bb9061126a565b80601f01602080910402602001604051908101604052809291908181526020018280546102e79061126a565b80156103325780601f1061030957610100808354040283529160200191610332565b820191905f5260205f20905b81548152906001019060200180831161031557829003601f168201915b5050505050905090565b5f61034682610692565b505f828152600460205260409020546001600160a01b03166102a7565b61036e8282336106ca565b5050565b6001600160a01b0382166103a057604051633250574960e11b81525f60048201526024015b60405180910390fd5b5f6103ac8383336106d7565b9050836001600160a01b0316816001600160a01b0316146103fa576040516364283d7b60e01b81526001600160a01b0380861660048301526024820184905282166044820152606401610397565b50505050565b61041a83838360405180602001604052805f81525061049b565b505050565b5f6102a782610692565b5f6001600160a01b038216610453576040516322718ad960e21b81525f6004820152602401610397565b506001600160a01b03165f9081526003602052604090205490565b6104766107c9565b61047f5f6107f6565b565b6060600180546102bb9061126a565b61036e338383610847565b6104a6848484610372565b6103fa33858585856108e5565b60606102a782610a0d565b5f6001600160a01b0383166105155760405162461bcd60e51b815260206004820152601b60248201527f43616e6e6f74206d696e7420746f207a65726f206164647265737300000000006044820152606401610397565b5f8251116105655760405162461bcd60e51b815260206004820152601960248201527f546f6b656e205552492063616e6e6f7420626520656d707479000000000000006044820152606401610397565b60088054905f610574836112a2565b90915550506008546105868482610b18565b6105908184610b79565b836001600160a01b0316817fec2cd236ed6d37bf5a71276ac93889db12834493a090efd543a3d2eca8dcdcc8856040516105ca9190610fe6565b60405180910390a39392505050565b6001600160a01b039182165f90815260056020908152604080832093909416825291909152205460ff1690565b61060e6107c9565b6001600160a01b03811661063757604051631e4fbdf760e01b81525f6004820152602401610397565b610640816107f6565b50565b5f6001600160e01b031982166380ac58cd60e01b148061067357506001600160e01b03198216635b5e139f60e01b145b806102a757506301ffc9a760e01b6001600160e01b03198316146102a7565b5f818152600260205260408120546001600160a01b0316806102a757604051637e27328960e01b815260048101849052602401610397565b61041a8383836001610bc8565b5f828152600260205260408120546001600160a01b039081169083161561070357610703818486610ccc565b6001600160a01b0381161561073d5761071e5f855f80610bc8565b6001600160a01b0381165f90815260036020526040902080545f190190555b6001600160a01b0385161561076b576001600160a01b0385165f908152600360205260409020805460010190555b5f8481526002602052604080822080546001600160a01b0319166001600160a01b0389811691821790925591518793918516917fddf252ad1be2c89b69c2b068fc378daa952ba7f163c4a11628f55a4df523b3ef91a4949350505050565b6007546001600160a01b0316331461047f5760405163118cdaa760e01b8152336004820152602401610397565b600780546001600160a01b038381166001600160a01b0319831681179093556040519116919082907f8be0079c531659141344cd1fd0a4f28419497f9722a3daafe3b4186f6b6457e0905f90a35050565b6001600160a01b03821661087957604051630b61174360e31b81526001600160a01b0383166004820152602401610397565b6001600160a01b038381165f81815260056020908152604080832094871680845294825291829020805460ff191686151590811790915591519182527f17307eab39ab6107e8899845ad3d59bd9653f200f220920489ca2b5937696c31910160405180910390a3505050565b6001600160a01b0383163b15610a0657604051630a85bd0160e11b81526001600160a01b0384169063150b7a02906109279088908890879087906004016112c6565b6020604051808303815f875af1925050508015610961575060408051601f3d908101601f1916820190925261095e91810190611302565b60015b6109c8573d80801561098e576040519150601f19603f3d011682016040523d82523d5f602084013e610993565b606091505b5080515f036109c057604051633250574960e11b81526001600160a01b0385166004820152602401610397565b805160208201fd5b6001600160e01b03198116630a85bd0160e11b14610a0457604051633250574960e11b81526001600160a01b0385166004820152602401610397565b505b5050505050565b6060610a1882610692565b505f8281526006602052604081208054610a319061126a565b80601f0160208091040260200160405190810160405280929190818152602001828054610a5d9061126a565b8015610aa85780601f10610a7f57610100808354040283529160200191610aa8565b820191905f5260205f20905b815481529060010190602001808311610a8b57829003601f168201915b505050505090505f610ac460408051602081019091525f815290565b905080515f03610ad5575092915050565b815115610b07578082604051602001610aef92919061131d565b60405160208183030381529060405292505050919050565b610b1084610d30565b949350505050565b6001600160a01b038216610b4157604051633250574960e11b81525f6004820152602401610397565b5f610b4d83835f6106d7565b90506001600160a01b0381161561041a576040516339e3563760e11b81525f6004820152602401610397565b5f828152600660205260409020610b908282611390565b506040518281527ff8e1a15aba9398e019f0b49df1a4fde98ee17ae345cb5f6b5e2c27f5033e8ce79060200160405180910390a15050565b8080610bdc57506001600160a01b03821615155b15610c9d575f610beb84610692565b90506001600160a01b03831615801590610c175750826001600160a01b0316816001600160a01b031614155b8015610c2a5750610c2881846105d9565b155b15610c535760405163a9fbf51f60e01b81526001600160a01b0384166004820152602401610397565b8115610c9b5783856001600160a01b0316826001600160a01b03167f8c5be1e5ebec7d5bd14f71427d1e84f3dd0314c0f7b2291e5b200ac8c7c3b92560405160405180910390a45b505b50505f90815260046020526040902080546001600160a01b0319166001600160a01b0392909216919091179055565b610cd7838383610da1565b61041a576001600160a01b038316610d0557604051637e27328960e01b815260048101829052602401610397565b60405163177e802f60e01b81526001600160a01b038316600482015260248101829052604401610397565b6060610d3b82610692565b505f610d5160408051602081019091525f815290565b90505f815111610d6f5760405180602001604052805f815250610d9a565b80610d7984610e02565b604051602001610d8a92919061131d565b6040516020818303038152906040525b9392505050565b5f6001600160a01b03831615801590610b105750826001600160a01b0316846001600160a01b03161480610dda5750610dda84846105d9565b80610b105750505f908152600460205260409020546001600160a01b03908116911614919050565b60605f610e0e83610e92565b60010190505f8167ffffffffffffffff811115610e2d57610e2d6110dd565b6040519080825280601f01601f191660200182016040528015610e57576020820181803683370190505b5090508181016020015b5f19016f181899199a1a9b1b9c1cb0b131b232b360811b600a86061a8153600a8504945084610e6157509392505050565b5f8072184f03e93ff9f4daa797ed6e38ed64bf6a1f0160401b8310610ed05772184f03e93ff9f4daa797ed6e38ed64bf6a1f0160401b830492506040015b6d04ee2d6d415b85acef81000000008310610efc576d04ee2d6d415b85acef8100000000830492506020015b662386f26fc100008310610f1a57662386f26fc10000830492506010015b6305f5e1008310610f32576305f5e100830492506008015b6127108310610f4657612710830492506004015b60648310610f58576064830492506002015b600a83106102a75760010192915050565b6001600160e01b031981168114610640575f80fd5b5f60208284031215610f8e575f80fd5b8135610d9a81610f69565b5f5b83811015610fb3578181015183820152602001610f9b565b50505f910152565b5f8151808452610fd2816020860160208601610f99565b601f01601f19169290920160200192915050565b602081525f610d9a6020830184610fbb565b5f60208284031215611008575f80fd5b5035919050565b80356001600160a01b0381168114611025575f80fd5b919050565b5f806040838503121561103b575f80fd5b6110448361100f565b946020939093013593505050565b5f805f60608486031215611064575f80fd5b61106d8461100f565b925061107b6020850161100f565b9150604084013590509250925092565b5f6020828403121561109b575f80fd5b610d9a8261100f565b5f80604083850312156110b5575f80fd5b6110be8361100f565b9150602083013580151581146110d2575f80fd5b809150509250929050565b634e487b7160e01b5f52604160045260245ffd5b5f67ffffffffffffffff8084111561110b5761110b6110dd565b604051601f8501601f19908116603f01168101908282118183101715611133576111336110dd565b8160405280935085815286868601111561114b575f80fd5b858560208301375f602087830101525050509392505050565b5f805f8060808587031215611177575f80fd5b6111808561100f565b935061118e6020860161100f565b925060408501359150606085013567ffffffffffffffff8111156111b0575f80fd5b8501601f810187136111c0575f80fd5b6111cf878235602084016110f1565b91505092959194509250565b5f80604083850312156111ec575f80fd5b6111f58361100f565b9150602083013567ffffffffffffffff811115611210575f80fd5b8301601f81018513611220575f80fd5b61122f858235602084016110f1565b9150509250929050565b5f806040838503121561124a575f80fd5b6112538361100f565b91506112616020840161100f565b90509250929050565b600181811c9082168061127e57607f821691505b60208210810361129c57634e487b7160e01b5f52602260045260245ffd5b50919050565b5f600182016112bf57634e487b7160e01b5f52601160045260245ffd5b5060010190565b6001600160a01b03858116825284166020820152604081018390526080606082018190525f906112f890830184610fbb565b9695505050505050565b5f60208284031215611312575f80fd5b8151610d9a81610f69565b5f835161132e818460208801610f99565b835190830190611342818360208801610f99565b01949350505050565b601f82111561041a575f81815260208120601f850160051c810160208610156113715750805b601f850160051c820191505b81811015610a045782815560010161137d565b815167ffffffffffffffff8111156113aa576113aa6110dd565b6113be816113b8845461126a565b8461134b565b602080601f8311600181146113f1575f84156113da5750858301515b5f19600386901b1c1916600185901b178555610a04565b5f85815260208120601f198616915b8281101561141f57888601518255948401946001909101908401611400565b508582101561143c57878501515f19600388901b60f8161c191681555b5050505050600190811b0190555056fea2646970667358221220545e79eda0354d5f5f38fd0e550f8eec0048bfaad880f9e96a9d7eef49106e5e64736f6c63430008140033",
  "linkReferences": {},
  "deployedLinkReferences": {},
  "immutableReferences": {},
  "inputSourceName": "project/contracts/NexaNFT.sol",
  "buildInfoId": "solc-0_8_20-82380ad36cd8ce905710f3c151152651648fe98d"
}